:100000000C94ED000C9415010C9415010C94150141
:100010000C9415010C9415010C9415010C94150108
:100020000C9415010C9415010C9415010C941501F8
:100030000C9415010C9415010C9415010C941501E8
:100040000C94ED200C9415010C94231E0C941501B6
:100050000C9415010C9415010C9415010C941501C8
:100060000C9415010C9415017C3C3E5E2B3D3F2FFA
:100070005B5D3B2C2A225C00F800030110011C018F
:1000800022012F0135013D01400144014B01530183
:1000900059015E01620169016B016D016F0171011E
:1000A0007301750177017901656D656D006D656D91
:1000B00000626F6F746D730046617431363A3A6F47
:1000C00070656E0046617431363A3A696E69740043
:1000D0006572726F722E636172642E696E6974004C
:1000E00042414D0042464F0061636B00656D656D96
:1000F000006D656D006D73005075736842757474A2
:100100006F6E004469676974616C4C69676874005C
:100110004C6967687453656E736F720054696D65DE
:1001200072004C6F63616C4368616E6E656C006356
:100130006C69636B0072656C65617365006F6E005E
:100140006F666600746F67676C65007472696767D5
:100150006572006C69676874007469636B0070692C
:100160006E00706572696F64006300620061006414
:100170000065006600670068006900000000002458
:100180000027002A0000000000250028002B0000A6
:1001900000000023002600290004040404040404D1
:1001A0000402020202020203030303030301020426
:1001B00008102040800102040810200102040810E9
:1001C00020000000070002010000030406000000F8
:1001D000000000000000F20A1F1F11241FBECFEF15
:1001E000D8E0DEBFCDBF11E0A0E0B1E0ECE3F1E587
:1001F00002C005900D92AA3FB107D9F715E0AAEF0A
:10020000B1E001C01D92AA3BB107E1F711E0CAEDD0
:10021000D1E004C02297FE010E942923C63DD107E8
:10022000C9F70E941C1E0C949C280C940000CF93CC
:10023000DF93EC01DB0180E090E020E2FD01E80FBC
:10024000F91F208301968B309105C1F757E040E0FC
:1002500021C02E3219F088E690E007C05A3019F11B
:100260005AE048E017C03217F1F0FC0101963491D2
:100270003323C9F75417B8F02132A8F02F3798F478
:10028000822F81568A3108F42052FD01E40FF11DBE
:1002900020834F5F29912223E1F690E08C918032F8
:1002A00019F091E001C090E0892FDF91CF9108957E
:1002B00080911304882399F14091D1015091D2018A
:1002C0006091D3017091D40180911102909112023A
:1002D00023E132E00E94DE09882319F140911404E1
:1002E0005091150460911604709117044115510541
:1002F0006105710591F0809111029091120223E144
:1003000032E00E94DE09882361F0109214041092FA
:10031000150410921604109217041092130481E031
:10032000089580E00895DF92EF92FF920F931F935C
:100330007B018C01D42E8091D1019091D201A091AA
:10034000D301B091D4018E159F05A007B107C1F06C
:100350000E9458018823D9F08091110290911202D5
:10036000B801A70123E132E00E94AE09882379F0A9
:10037000E092D101F092D2010093D3011093D40105
:10038000809113048D298093130481E001C080E0E3
:100390001F910F91FF90EF90DF9008956F927F92E1
:1003A0008F929F92AF92BF92CF92DF92EF92FF9285
:1003B0000F931F93CF93DF93162F653008F0E3C0A0
:1003C0009093120280931102662321F4EE24FF24FD
:1003D000870117C060E070E080E090E040E00E949C
:1003E0009301882309F4CFC0E12FF0E0A4E0EE0FE1
:1003F000FF1FAA95E1F7E753FC4FE080F1800281EF
:100400001381C801B70140E00E949301882309F4D9
:10041000BAC080911104853509F0B5C080911204ED
:100420008A3A09F0B0C0809023028092FD0190903A
:1004300020029092FE01C0912902D0912A02D0930D
:100440000202C09301026091240270912502709310
:1004500000026093FF0160902102709022029301DC
:1004600040E050E02E0D3F1D401F511F209305021C
:10047000309306024093070250930802882D90E0C3
:10048000FC01EC9FC001ED9F900DFC9F900D11248D
:10049000A0E0B0E0820F931FA41FB51F8093090254
:1004A00090930A02A0930B02B0930C02F5E0660F42
:1004B000771FFA95E1F761507E4F672F7727669592
:1004C0009B0140E050E0280F391F4A1F5B1F20931B
:1004D0000D0230930E0240930F0250931002809150
:1004E000260290912702009721F05C01CC24DD24A4
:1004F00008C0A0903302B0903402C0903502D09072
:100500003602E21AF30A040B150BEA0CFB1C0C1D55
:100510001D1D292D30E040E050E0C801B7010E94C8
:10052000D622A901309304022093030280911E0277
:1005300090911F028050924031F5209721F12FE0D9
:10054000453F520700F181E0A81680E0B80680E838
:10055000C80680E0D806B8F46728A9F0882099F08A
:10056000852F9927C817D90770F0992061F0292D98
:1005700030E0C901019782239323892B21F481E084
:100580008093FC0101C080E0DF91CF911F910F911A
:10059000FF90EF90DF90CF90BF90AF909F908F90A3
:1005A0007F906F900895CF92DF92EF92FF920F931A
:1005B0001F93CF93DF93EC016B018230910508F418
:1005C00052C0809103029091040201968C179D07FE
:1005D00008F449C08D2F99277C0100E010E080913C
:1005E000050290910602A0910702B0910802E80E60
:1005F000F91E0A1F1B1F8091D1019091D201A09179
:10060000D301B091D401E816F9060A071B0739F0A7
:10061000C801B70140E00E949301882321F1D07006
:10062000CC0FDD1FCD5EDD4FD982C88280911304CF
:100630008160809313048091FD01823090F080915D
:10064000010290910202A0E0B0E0E80EF91E0A1F3C
:100650001B1FE0921404F0921504009316041093EB
:10066000170481E001C080E0DF91CF911F910F91CD
:10067000FF90EF90DF90CF9008950F931F93CF934B
:10068000DF93EC018B0180910302909104020196AB
:100690008C179D0788F18D2F99279C0140E050E031
:1006A0008091050290910602A0910702B091080284
:1006B000280F391F4A1F5B1F8091D1019091D201F1
:1006C000A091D301B091D401281739074A075B07DD
:1006D00039F0CA01B90140E00E949301882361F01A
:1006E000D070CC0FDD1FCD5EDD4F88819981F80180
:1006F0009183808381E001C080E0DF91CF911F91E1
:100700000F9108958F929F92AF92BF92CF92DF92F6
:10071000EF92FF920F931F93CF93DF93EC017A0137
:100720008B018B8190E083709070892B09F468C0F5
:1007300088859985AA85BB8584179507A607B7077D
:1007400008F45EC06BC01D861C861E861F86188A34
:10075000198A54C08091FE01882E9924AA24BB24B2
:10076000C801B701615070408040904049E09695C3
:100770008795779567954A95D1F7A50194010E94D1
:10078000D62269016E857F8588899989E616F706E4
:100790000807190728F0611571058105910529F4ED
:1007A0008E819F819D878C871DC0615070408040E5
:1007B000904039E096958795779567953A95D1F76A
:1007C000A50194010E94D622C21AD30A0BC08C85BF
:1007D0009D85B5010E943D030894C108D108882376
:1007E00031F40EC02CE0A22EB12CAC0EBD1EC114F3
:1007F000D10469F7EE86FF86088B198B81E001C072
:1008000080E0DF91CF911F910F91FF90EF90DF90EB
:10081000CF90BF90AF909F908F9008954115510554
:100820006105710509F096CF8ECFEF92FF920F937D
:100830001F93DF93CF9300D0CDB7DEB78B017E013E
:100840000894E11CF11CC801B7010E943D038823F4
:1008500079F0C80160E070E00E94D302882341F083
:1008600009811A818FEF083F180768F381E001C002
:1008700080E00F900F90CF91DF911F910F91FF902B
:10088000EF900895AF92BF92CF92DF92EF92FF92D6
:100890000F931F93DF93CF9300D0CDB7DEB76C01DA
:1008A000FC01048515850115110511F401E010E026
:1008B000EE24FF245E010894A11CB11C8091030268
:1008C00090910402E816F90690F58017910710F44C
:1008D00001E010E00F5F1F4FC801B5010E943D030A
:1008E000882329F189819A81892B21F00894E11CC0
:1008F000F11CE4CFC8016FEF7FEF0E94D302882381
:10090000B1F0F60184859585009731F0B8010E9419
:10091000D302882339F40BC0F60183818068838376
:1009200017830683F6011587048781E001C080E004
:100930000F900F90CF91DF911F910F91FF90EF904B
:10094000DF90CF90BF90AF9008954F925F926F92DB
:100950007F928F929F92AF92BF92CF92DF92EF924F
:10096000FF920F931F93CF93DF93EC014A018B818A
:1009700080FFA2C0EE84FF84088919892885398503
:100980004A855B85C401A0E0B0E08E0D9F1DA01FCD
:10099000B11F281739074A075B0718F449018E1859
:1009A0009F085B01ECE06E2E712C6C0E7D1E6401C5
:1009B000412C72E0572E7AC02E853F85488959898F
:1009C000DA01C90169E0B695A795979587956A956B
:1009D000D1F71091FE01115018235FEFE52E51E081
:1009E000F52EE222F3221123E1F4E114F104C9F41B
:1009F0008C859D85009729F48E819F819D878C87AA
:100A000006C0B3010E943D03882309F455C08C85BC
:100A10009D858230910508F44FC0885F9F4F08F094
:100A20004BC06C857D856250704080E090E02091E5
:100A3000FE0130E040E050E00E94A42220910D022F
:100A400030910E0240910F0250911002620F731FFD
:100A5000841F951F610F711D811D911D40E00E9433
:100A60009301882349F1C2018E199F0986018C15D3
:100A70009D0508F48C0197012D5E3D4FC501B9011C
:100A8000A8010E946725980140E050E08E859F856F
:100A9000A889B989820F931FA41FB51F8E879F87CE
:100AA000A88BB98BA00EB11EC01AD10AC114D104F3
:100AB00009F082CFA40102C04FEF5FEFCA01DF91BE
:100AC000CF911F910F91FF90EF90DF90CF90BF904B
:100AD000AF909F908F907F906F905F904F90089510
:100AE000CF93DF93EC01E62F8091FF0190910002FC
:100AF000C817D90720F5BE01A4E076956795AA9599
:100B0000E1F780E090E02091090230910A024091E3
:100B10000B0250910C02620F731F841F951F4E2F02
:100B20000E949301882359F0BE016F707070F5E048
:100B3000660F771FFA95E1F76D5E7D4F02C060E0AA
:100B400070E0CB01DF91CF9108950F931F93CF9366
:100B5000DF938C01FC01838187FF2BC08481958109
:100B600061E00E947005EC01009711F480E023C061
:100B7000F80180859185A285B3858C8F9D8FAE8F7E
:100B8000BF8F868197819B8F8A8FE0911804F091A7
:100B90001904309751F0BE016A5E7F4FCE0148962E
:100BA0000995888D998D9B8B8A8BF80183818F772E
:100BB00083830E945801DF91CF911F910F91089577
:100BC0008F929F92AF92BF92CF92DF92EF92FF925D
:100BD0000F931F93DF93CF9300D0CDB7DEB78C0177
:100BE0006A017B01FC01838181FF66C0808591855C
:100BF000A285B38584179507A607B70708F45CC0DC
:100C00000097A105B10511F481E057C0F801868471
:100C10009784A088B188411551056105710571F46B
:100C200066817781C8010E941504882309F444C0B5
:100C3000F801178216821586148624C0C8010E9406
:100C400082038823C9F1F80184859585BE016F5F11
:100C50007F4F0E943D03882379F189819A81885FC3
:100C60009F4F80F4F801848595856FEF7FEF0E9498
:100C7000D302882309F169817A81C8010E94150491
:100C80008823D1F0F801C086D186E286F38683817D
:100C900080688383C8010E94A505882369F0B70195
:100CA000A6018C149D04AE04BF0410F4B501A40188
:100CB000C8010E94820301C080E00F900F90CF9185
:100CC000DF911F910F91FF90EF90DF90CF90BF9039
:100CD000AF909F908F900895AF92BF92CF92DF9286
:100CE000FF920F931F93CF93DF938C016B01F42E30
:100CF0008091FC01882309F44FC0D80113968C9190
:100D000090E083709070892B09F046C050C0C1FFFD
:100D100043C0C60160E00E947005FC010097E1F14C
:100D200080818823C9F1853EB9F18385282F30E081
:100D3000C90188719070892B79F520FF04C0C274B5
:100D4000D070CD2B49F5E8011D861C86D8011E9672
:100D50001D921D921D921C9251971596DC92CE9277
:100D60001497848D958DA68DB78D88879987AA87CE
:100D7000BB87828D938D9F838E83EFE0FE22FB8263
:100D8000AB2811F481E009C0C80140E050E060E008
:100D900070E00E94E00501C080E0DF91CF911F91DB
:100DA0000F91FF90DF90CF90BF90AF900895C42F28
:100DB000D0E080E4A82EB12CAC22BD2246FDA7CF06
:100DC000A8CF2F923F924F925F926F927F929F9205
:100DD000AF92BF92CF92DF92EF92FF920F931F9349
:100DE000DF93CF9300D0CDB7DEB76C01162F072F5E
:100DF0001A01FC01838181FFF4C082FF13C040858A
:100E000051856285738586859785A089B189841708
:100E10009507A607B70731F0C6010E948203882311
:100E200009F4DFC0812F902F9C0129013101AAC054
:100E3000DA01C90109E0B695A795979587950A95B6
:100E4000D1F79090FE019A9498221FEFA12E11E005
:100E5000B12EA222B322992021F5A114B10409F5E3
:100E6000F60184859585009729F4868197810097FE
:100E7000A9F40EC0BE016F5F7F4F0E943D0388231F
:100E800009F4AFC089819A81FFEF883F9F0730F056
:100E9000C6010E944204882321F4A3C0F60195876D
:100EA0008487F601648575856250704080E090E02B
:100EB0002091FE0130E040E050E00E94A4227B013E
:100EC0008C0180910D0290910E02A0910F02B091C1
:100ED0001002E80EF91E0A1F1B1FE90CF11C011D70
:100EE000111DA114B10409F5F60126853785408945
:100EF000518980859185A285B385281739074A07CE
:100F00005B0798F00E945801882309F46AC0E092B8
:100F1000D101F092D2010093D3011093D4018091BA
:100F2000130481608093130408C0C801B70141E035
:100F30000E949301882309F457C080E092E08A1947
:100F40009B0983018615970508F48C0195012D5E98
:100F50003D4FC901B201A8010E946725980140E0F8
:100F600050E0F60186859785A089B189820F931F8D
:100F7000A41FB51F86879787A08BB18B601A710A53
:100F8000400E511EF601268537854089518961142E
:100F9000710409F04DCF80859185A285B3858217B4
:100FA0009307A407B50728F4208731874287538722
:100FB0000AC08091180490911904892B39F02114EA
:100FC000310421F0F601838180688383F6018381F7
:100FD00083FF05C0C6010E94A505882311F0A10169
:100FE00005C081E0F60182834FEF5FEFCA010F90E9
:100FF0000F90CF91DF911F910F91FF90EF90DF90B5
:10100000CF90BF90AF909F907F906F905F904F90E8
:101010003F902F900895DB010D900020E9F7119784
:10102000A61BB70BAD010E94E1060895DF93CF9395
:101030000F92CDB7DEB76983BE016F5F7F4F41E08E
:1010400050E00E94E1060F90CF91DF9108959F92AA
:10105000AF92BF92CF92DF92EF92FF920F931F93C6
:10106000DF93CF93CDB7DEB72B970FB6F894DEBFE3
:101070000FBECDBF5C01942E8091FC01882309F442
:101080007EC0F501838190E083709070892B09F018
:1010900076C088C0C70160E00E947005FC0100971F
:1010A00009F46DC08081882311F0853E29F417FD75
:1010B0008701882389F41AC0C601BF014BE050E0C4
:1010C0000E945A25009741F4892D8073803309F4DA
:1010D00056C0C501B7014FC00894E11CF11C8091B6
:1010E000FF0190910002E816F906A0F217FD47C033
:1010F000892D8271823109F042C0F02EE12EC801A3
:1011000061E00E9470058C010097C9F180E2F8014E
:1011100011928A95E9F7D801FE0131968BE0019092
:101120000D928150E1F7E0911804F0911904309785
:1011300039F0B801625F7F4FC8014096099509C038
:1011400081E298E2F801918B808B80E098E09787AC
:101150008687F80180899189938B828B918F808F0C
:1011600086859785978B868B0E945801882339F056
:10117000C5016F2D7E2D492D0E946C0601C080E0B7
:101180002B960FB6F894DEBF0FBECDBFCF91DF9187
:101190001F910F91FF90EF90DF90CF90BF90AF9095
:1011A0009F900895CB016E010894C11CD11CB6011B
:1011B0000E941701882319F30FEF1FEFEE24FF247D
:1011C0008ECF8FEF8EBD0DB407FEFDCF8EB5089587
:1011D0008EBD0DB407FEFDCF0895FF920F931F93B0
:1011E000CF93DF93F82E8B010E943521EB0109C0CC
:1011F0000E9435216C1B7D0B0617170710F480E049
:1012000005C00E94E1088F1599F781E0DF91CF9129
:101210001F910F91FF900895FC01828160E00E9470
:101220003F220895DF92EF92FF920F931F93D62EE5
:1012300079018A010E940C098FEF6CE271E00E9433
:10124000ED088D2D80640E94E808812F9927AA2738
:10125000BB270E94E808C801AA27BB270E94E8080C
:10126000BB27A12F902F8F2D0E94E8088E2D0E9462
:10127000E808DD2011F08FEF01C085E90E94E80841
:101280001FEF0E94E10887FF04C0112311F01150E5
:10129000F8CF1F910F91FF90EF90DF900895BF92CC
:1012A000CF92DF92EF92FF920F931F938C01B62E95
:1012B00069017A0167E320E030E040E050E00E94FD
:1012C0001209C8016B2DA70196010E9412091F91F6
:1012D0000F91FF90EF90DF90CF90BF900895FC01A9
:1012E000828161E00E943F220895EF92FF920F9366
:1012F0001F93CF93DF93EC017B018A018EEF6CE2A9
:1013000071E00E94ED08882329F485E08883CE01EE
:101310000E946F098FEF8EBD20E030E09FEF0BC081
:101320000DB407FEFDCF8EB5F701E20FF31F8083EA
:101330009EBD2F5F3F4F2017310790F30DB407FE7E
:10134000FDCF0E94E108CE010E946F0981E0DF918C
:10135000CF911F910F91FF90EF900895CF92DF9260
:10136000EF92FF920F931F93CF93DF93EC017A01DB
:101370008B01690159E0EE0CFF1C001F111F5A95EB
:10138000D1F761E1A80197010E941209882339F081
:1013900084E08883CE010E946F0980E006C0CE0100
:1013A000B60140E052E00E947509DF91CF911F9194
:1013B0000F91FF90EF90DF90CF900895CF92DF9242
:1013C000EF92FF920F931F93CF93DF93EC017A017B
:1013D0008B01690169E0EE0CFF1C001F111F6A956B
:1013E000D1F7E114F1040105110511F488E008C0FA
:1013F00068E1A80197010E941209882339F083E06F
:101400008883CE010E946F0980E034C08EEF8EBDCC
:1014100020E030E00DB407FEFDCFF601E20FF31F30
:1014200080818EBD2F5F3F4F82E02030380791F7DB
:101430000DB407FEFDCF8FEF0E94E8088FEF0E94EA
:10144000E8080E94E108982F8F71853019F0998380
:1014500086E0D6CF8FEF68E572E00E94ED08882322
:1014600029F487E08883CE010E946F09CE010E9493
:101470006F0981E0DF91CF911F910F91FF90EF9065
:10148000DF90CF900895EF92FF920F931F93CF9329
:10149000DF93EC01062F623010F08AE032C0188230
:1014A0004A830E9435217B018A8161E00E94EC2100
:1014B000CE010E946F098CE060E00E94EC218AE07E
:1014C00061E00E94EC218BE061E00E94EC218DE064
:1014D00061E00E94EC2183E58CBD10E08FEF0E945B
:1014E000E8081F5F1A30D1F7CE010E940C090FC027
:1014F0000E9435216E197F09615D774040F01983A4
:1015000081E08883CE010E946F0980E02DC0CE016A
:1015100060E020E030E040E050E00E941209182F27
:10152000813031F70AC00E9435216E197F09615D53
:10153000774018F0198382E0E4CFCE0169E220E021
:1015400030E040E050E00E944F09182F882359F7FF
:101550008CB58C7F8CBD002319F48DB581608DBD59
:10156000CE010E946F0981E0DF91CF911F910F9111
:10157000FF90EF900895CF93DF93880F991FE0912C
:101580009704F0919804E80FF91FC081D1818881F8
:10159000998182309105D9F084309105D9F0019775
:1015A00019F020E030E01AC0EC89FD89AA89BB89D6
:1015B0002281338112968D919C911397280F391FA8
:1015C000EE89FF8982819381280F391F07C0ED8D35
:1015D000FE8D02C0E989FA8922813381C901DF9138
:1015E000CF9108958DED91E09093860480938504CA
:1015F000109288040895EF92FF920F931F93880F23
:10160000991FE0919704F0919804E80FF91F019059
:10161000F081E02D80819181009739F0039729F0C6
:101620002FEF3FEF4FEF5FEF0CC0E188F2880389A7
:1016300014890E943521A8019701261B370B480BFE
:10164000590BB901CA011F910F91FF90EF900895B6
:10165000CF93DF93EC01CC0FDD1FE0919704F09165
:101660009804EC0FFD1F0190F081E02D0190F081B6
:10167000E02D309721F0339711F0A0E016C00E94C2
:101680003521A0E0E0919704F0919804EC0FFD1F44
:101690000190F081E02D21893289438954892617F0
:1016A00037074807590708F4A1E08A2FDF91CF9147
:1016B0000895CF93DF93EC0107C08AE995E040E0FD
:1016C00050E00E9441202196FE0164916623A9F713
:1016D000DF91CF9108950E94590B8AE995E00E940D
:1016E00089200895CF93DF9382E894E060E04AE098
:1016F0000E94430A882321F480ED90E00E946B0B46
:1017000082E894E061E00E94CE01882359F482E8E7
:1017100094E060E00E94CE01882321F484EC90E004
:101720000E946B0B85E894E060E071E043E10E9469
:101730002708882321F088EB90E00E946B0B109221
:1017400087041092920410929104109293041092C4
:101750009404109295041092960480918D049091B7
:101760008E04A0918F04B091900480589E43A040B5
:10177000B040C1F0C0E0D0E085E894E06DE30E94A5
:10178000160821968EE3C038D807B1F7109292045C
:101790001092910410929304109294041092950464
:1017A00010929604DF91CF910895CF92DF92EF923D
:1017B000FF920F931F93CF93DF936C01E0909904F6
:1017C000F0909A040091970410919804C0E0D0E042
:1017D0000BC0F801819191918F010296B6010E9490
:1017E0007025009731F02196CE15DF0594F3CFEFE9
:1017F000DFEFCE01DF91CF911F910F91FF90EF901E
:10180000DF90CF900895EF92FF920F931F93CF93A5
:10181000DF93880F991FE0919704F0919804E80FE7
:10182000F91F00811181D8018D919C918230910521
:1018300059F18330910534F4009759F0019709F07C
:101840005EC012C08330910551F1049709F057C072
:101850002CC0F8018789908D0E94DA23D80159960F
:101860008D919C915A9749C0F801828993890E9471
:10187000DA23D80154968D919C9155970E94DA23D2
:10188000F8018689978939C0D8015D968D919C9120
:101890005E970E94DA23F801878D90A12EC0D801AF
:1018A00055968D919C91569728C0F801818992890F
:1018B0000E94DA23D8015396ED90FC905497C0E033
:1018C000D0E00AC0CE01880F991FE80FF91F808170
:1018D00091810E94DA232196F70182819381019000
:1018E000F081E02DC817D9076CF3CF010E94DA23ED
:1018F000D80153968D919C9154970E94DA23C80188
:101900000E94DA23DF91CF911F910F91FF90EF900A
:1019100008956F927F928F929F92AF92BF92CF92D3
:10192000DF92EF92FF920F931F93CF93DF935A01B1
:10193000C0919704D0919804FC01EE0FFF1FEC0FAB
:10194000FD1F20813181F9018081918182309105D3
:10195000A1F083309105C1F0892B51F54115510556
:1019600021F04130510521F504C0F901A789B08D5E
:1019700011C0F901A18DB28D0DC046305105C1F4E1
:10198000F901A78DB0A106C04730510589F4F901CE
:10199000A589B689109761F011961C921E92159632
:1019A0001C921E92149713961C921E92129774C04A
:1019B000660F771FC60FD71FE881F981808191815B
:1019C000049709F069C0C389D4896A807B8042E0AA
:1019D000842E912C820E931E00E010E0EE24EA94F7
:1019E000FE2C1BC0C801880F991FE881F981E80F00
:1019F000F91FC080D180F601808191810296B401E7
:101A00000E947025009739F4F601828193818A152E
:101A10009B0509F478010F5F1F4F0615170514F396
:101A2000FFEFEF16FFEFFF06B9F18701000F111F5F
:101A3000E881F981E00FF11F808191810E94DA2312
:101A40002A813B81C9010197E816F90671F0E88106
:101A5000F9810E0F1F1F9C01220F331FE20FF31F8E
:101A600080819181F801918380832A813B81C90122
:101A700063E070E00E94C322892B49F4220F331FD8
:101A800088819981B9010E943224888399838A814F
:101A90009B8101979B838A83DF91CF911F910F9147
:101AA000FF90EF90DF90CF90BF90AF909F908F907E
:101AB0007F906F9008950F931F93CF93DF938C01C6
:101AC0000E94030C8091990490919A040197880FC9
:101AD000991F0E942D23EC01009711F480E047C06C
:101AE000DC01129720E030E040E050E023C02017F6
:101AF00031076CF4E0919704F0919804E40FF51F1E
:101B00008081918113969C938E9312970EC0021739
:101B100013075CF4E0919704F0919804E40FF51F2B
:101B20008081918111969C938E932F5F3F4F4E5FE2
:101B30005F4F12968091990490919A042817390763
:101B4000B4F28091970490919804009711F00E944C
:101B5000DA23D0939804C0939704809199049091CC
:101B60009A04019790939A048093990481E0DF91FD
:101B7000CF911F910F9108950F931F93CF93DF93F0
:101B800080919B0490919C04892B61F08091990431
:101B900090919A040196880F991F0E942D23EC01C1
:101BA000009719F42FEF3FEF3EC0E0919904F091B8
:101BB0009A044091970450919804BA018C0120E056
:101BC00030E00AC0DB018D919D91BD01D8018D935C
:101BD0009D938D012F5F3F4F2E173F079CF3EE0F14
:101BE000FF1FEC0FFD1F80919B0490919C0491833B
:101BF00080834115510519F0CA010E94DA23D09360
:101C00009804C093970410929C0410929B04209116
:101C1000990430919A042F5F3F4F30939A04209398
:101C2000990421503040C901DF91CF911F910F914C
:101C300008956F927F928F929F92AF92BF92CF92B0
:101C4000DF92EF92FF920F931F93CF93DF934A019E
:101C5000A0919704B0919804FC01EE0FFF1FEA0FCA
:101C6000FB1FA080B180660F771FA60FB71F6D9076
:101C70007C90D3012D913C91F5018081918181303F
:101C80009105F1F0823091051CF4892B41F04BC095
:101C90008230910561F1039709F045C039C04115C3
:101CA000510521F041305105F1F506C0D501579697
:101CB000CD90DC90589734C0F501C18CD28C30C0E7
:101CC0004330510551F04430510569F0423051051F
:101CD00051F5F5010289138928C0D50154960D915B
:101CE0001C91559722C0F501068917891EC0453001
:101CF000510521F046305105B1F406C0D5015D967D
:101D00000D911C915E9711C0F501C78CD0A008C041
:101D10004730510541F4D5015596CD90DC9056974A
:101D200000E010E004C000E010E0CC24DD2424300A
:101D3000310509F052C00115110509F43FC0F30146
:101D4000E388F48886E090E00E942D23EC01009760
:101D500029F086E0DE011D928A95E9F7B982A88212
:101D60009B828A821D830C83F70122813381C90102
:101D700063E070E00E94C322892B69F42D5F3F4F1E
:101D8000220F331F80819181B9010E943224D70133
:101D90008C9311969C93F701828193819C01220F71
:101DA000331F0190F081E02DE20FF31FD183C08338
:101DB0000196D70113969C938E931297C114D10468
:101DC00061F0F6019382828271826082D301519622
:101DD0008D919C91529795838483DF91CF911F9130
:101DE0000F91FF90EF90DF90CF90BF90AF909F90BA
:101DF0008F907F906F9008951F93182F84EC9FEF22
:101E00009093D6018093D5018091800490918104B4
:101E1000AC01662757FD6095762F809193049091D1
:101E20009404A0919504B091960484179507A60791
:101E3000B70721F085E894E00E94820385E894E0EA
:101E4000612F0E9416081D3711F01F3221F485E81A
:101E500094E00E94A50580918004909181040196F0
:101E600090938104809380041F910895EF92FF92D4
:101E70000F931F93CF93DF937C01EE0CFF1CE09137
:101E80009704F0919804EE0DFF1D0190F081E02D74
:101E90000190F081E02DE130F10509F45AC0E23003
:101EA000F1051CF4EF2B49F0C2C0E230F10509F452
:101EB00075C0339709F0BBC096C080E00E94FC0E4D
:101EC0008DE30E94FC0E00E010E007C0C00FD11FA0
:101ED0008B8D0E94FC0E0F5F1F4FE0919704F091D5
:101EE0009804EE0DFF1DC081D181DE015B96FD01DE
:101EF00001900020E9F73197EA1BFB0B0E171F0733
:101F000028F38CE20E94FC0E81E00E94FC0E8DE31F
:101F10000E94FC0E00E010E007C0C00FD11F8FA58B
:101F20000E94FC0E0F5F1F4FE0919704F091980400
:101F3000EE0DFF1DC081D181DE019F96FD01019054
:101F40000020E9F73197EA1BFB0B0E171F0728F358
:101F50006EC080E00E94FC0E8DE30E94FC0E00E04B
:101F600010E007C0C00FD11F888D0E94FC0E0F5FCC
:101F70001F4FE0919704F0919804EE0DFF1DC08172
:101F8000D181DE015896FD0101900020E9F73197DB
:101F9000EA1BFB0B0E171F0728F349C080E00E94C5
:101FA000FC0E8DE30E94FC0E00E010E007C0C00FA5
:101FB000D11F89A10E94FC0E0F5F1F4FE091970473
:101FC000F0919804EE0DFF1DC081D181DE01919644
:101FD000FD0101900020E9F73197EA1BFB0B0E177A
:101FE0001F0728F324C081E00E94FC0E8DE30E94AD
:101FF000FC0E00E010E007C0C00FD11F8F890E94C7
:10200000FC0E0F5F1F4FE0919704F0919804EE0DC6
:10201000FF1DC081D181DE015796FD010190002096
:10202000E9F73197EA1BFB0B0E171F0728F3DF9127
:10203000CF911F910F91FF90EF900895DF92EF9253
:10204000FF920F931F93CF93DF938B017A01D22ED0
:10205000882311F083E001C084E00E94FC0E8AE333
:102060000E94FC0EC0E0D0E009C0F801EC0FFD1F9B
:102070008081882311F00E94FC0E2196F8010190C6
:102080000020E9F73197E01BF10BCE17DF0768F36B
:102090008AE30E94FC0EC0E0D0E009C0F701EC0F1B
:1020A000FD1F8081882311F00E94FC0E2196F7010C
:1020B00001900020E9F73197EE19FF09CE17DF07ED
:1020C00068F38AE30E94FC0E8D2D0E94FC0EDF91C6
:1020D000CF911F910F91FF90EF90DF9008950F9394
:1020E0001F93CF93DF938C01000F111FE091970492
:1020F000F0919804E00FF11F0190F081E02D8081B4
:1021000091818230910589F1833091051CF4892BEE
:1021100051F06DC08330910559F1049709F067C003
:10212000C0E0D0E053C0A789B08D14968D919C91EA
:102130001597892B71F032964D915C9111974E5FF6
:102140005F4F12962D913C91139781E0BF010E9441
:102150001E10E0919704F0919804E00FF11F019098
:10216000F081E02DA18DB28D05C0A78DB0A102C078
:10217000A589B68914968D919C911597892BB9F1F3
:1021800032964D915C9111974E5F5F4F12962D9153
:102190003C91139781E0BF010E941E1028C0CE0120
:1021A000880F991F0190F081E02DE80FF91F019031
:1021B000F081E02D608171816E5F7F4F12962281E8
:1021C000338181E0AD010E941E102196E0919704B9
:1021D000F0919804E00FF11FA081B1815396ED9129
:1021E000FC91549782819381C817D907C4F2DF917B
:1021F000CF911F910F910895EF92FF920F931F932C
:10220000CF93DF9382E090E09093810480938004E9
:102210008BE70E94FC0E00E010E0EE24FF243DC09E
:102220000115110519F08FE20E94FC0E81E00E9459
:10223000FC0E8AE30E94FC0EC0E0D0E0E09197041F
:10224000F0919804EE0DFF1D0190F081E02DEC0F50
:10225000FD1F8281882311F00E94FC0E2196CE3052
:10226000D10561F78AE30E94FC0EE0919704F0919A
:102270009804EE0DFF1D0190F081E02D80810E94F9
:10228000FC0E8AE30E94FC0EC8010E94360F0F5F0D
:102290001F4F82E090E0E80EF91E80919904909122
:1022A0009A04081719070CF4BBCFC0E0D0E007C0B0
:1022B0008FE20E94FC0ECE010E946F102196809149
:1022C000990490919A04C817D90794F38DE70E9456
:1022D000FC0E809180049091810401979093810479
:1022E00080938004DF91CF911F910F91FF90EF9029
:1022F00008950F931F93CF93DF938C0182E00E9488
:10230000FC0E8AE30E94FC0EC0E0D0E009C0F80198
:10231000EC0FFD1F8081803211F00E94FC0E21968F
:10232000F80101900020E9F73197E01BF10BCE177F
:10233000DF0768F3DF91CF911F910F9108951F93ED
:10234000162F24EC3FEF3093D6012093D501AC013A
:10235000662757FD6095762F8091930490919404A1
:10236000A0919504B091960484179507A607B70726
:1023700021F085E894E00E94820385E894E0612FD3
:102380000E9416081D3711F01F3221F485E894E0F1
:102390000E94A5051F910895CF93DF93EC01209132
:1023A000D5013091D601C901C1968C179D071CF04B
:1023B000C217D30714F5AE01662757FD6095762F37
:1023C0008091930490919404A0919504B091960407
:1023D00084179507A607B70721F085E894E00E94C7
:1023E000820385E894E062EA74E042E350E00E94F0
:1023F000A504D093D601C093D5018091D5019091C9
:10240000D601C81BD90BCE55DB4F8881DF91CF9108
:102410000895FC0180819181009711F00E94AB200A
:102420008DE061E00E94EC218DE061E00E943F229E
:102430006AEF70E080E090E00E9469218DE060E04A
:102440000E943F226AEF70E080E090E00E946921E4
:10245000EBCFCF92DF92EF92FF920F931F93CF9328
:10246000DF93EC017A018B01CE80DF8086E090E083
:102470000E942D239F838E83009729F4CE0166E06E
:1024800071E00E940912EE81FF8115821482EE81B3
:10249000FF81E082F182028313838C819D81892BED
:1024A00019F4FD83EC8305C0D6011596FC93EE93D9
:1024B00014978A819B8101969B838A83DF91CF91B8
:1024C0001F910F91FF90EF90DF90CF900895CF92E2
:1024D000DF92EF92FF920F931F93CF93DF93EC0164
:1024E0008C819D81892B29F4CE0167E371E00E94E4
:1024F0000912EC81FD81F080E180D280C3800481EB
:102500001581CF010E94DA231D830C838A819B8170
:1025100001979B838A836F2D7E2D8D2D9C2DDF91BE
:10252000CF911F910F91FF90EF90DF90CF90089582
:10253000CF92DF92EF92FF920F931F93CF93DF938F
:10254000880F991FE0919704F0919804E80FF91F04
:10255000E080F180D7018D919C918230910509F442
:10256000D0C08330910534F4009761F0019709F0F1
:1025700091C16AC08330910509F421C1049709F023
:1025800089C157C18701055E1F4FC8010E94002500
:1025900060E00E94EC21C8010E9400250E94742284
:1025A000F7012589368981309105F1F4232B09F053
:1025B00046C0968B858B84E090E00E942D23EC0131
:1025C000009721F0188219821A821B8289E691E015
:1025D000998388838FE691E09B838A83D7015796FE
:1025E000ED91FC9158971EC02130310541F5F7015E
:1025F000168A158A84E090E00E942D23EC01009752
:1026000021F0188219821A821B8285E791E0998352
:1026100088838FE691E09B838A83D7015996ED9159
:10262000FC915A9784819581009731F048815981B6
:102630006A817B810E942912CE010E94DA23C701A0
:102640008F960E941E25E4C0D7015296ED91FC9111
:10265000539784819581892B91F0CF010E94671255
:102660008701085E1F4FC8010E94002561E00E949B
:10267000EC21C8010E94002561E00E943F22D701A1
:102680005496ED91FC91559784819581892B91F019
:10269000CF010E9467128701085E1F4FC8010E9488
:1026A000002561E00E94EC21C8010E94002560E045
:1026B0000E943F22D7015696ED91FC915797848155
:1026C0009581892B09F4E6C0CF010E946712DD24B1
:1026D000F7018189882311F4DD24D394D701519621
:1026E000DC928701085E1F4FC8010E94002561E04F
:1026F0000E94EC21C8010E9400256D2D0E943F22FE
:10270000C9C0D7015D96ED91FC915E97848195815A
:10271000892B09F4BFC0CF010E946712C7018196BF
:102720000E9400250E94CA21F701928B818B84E0D0
:1027300090E00E942D23EC01009721F0188219826D
:102740001A821B8287010D5E1F4F00D000D000D07F
:10275000EDB7FEB73196ADB7BEB712961C930E9388
:1027600011978DE791E093838283D70151968D91E4
:102770009C915297958384830E94C4251983088372
:1027800080E891E09B838A83D7015F96ED91FC916D
:10279000909784819581EDB7FEB736960FB6F89481
:1027A000FEBF0FBEEDBF009731F0488159816A81AD
:1027B0007B810E942912CE010E94DA236BC084E043
:1027C00090E00E942D23EC01009721F018821982DD
:1027D0001A821B8285E891E0998388838AE891E0D8
:1027E0009B838A83D7015596ED91FC9156978481FE
:1027F0009581009731F0488159816A817B810E94DF
:102800002912CE010E94DA23C70147960E941E2595
:10281000F7012189328943895489260F371F481FC0
:10282000591FD70151962D933D934D935C93549727
:1028300031C0D7015196ED91FC91529784819581D9
:10284000892B41F1CF010E946712C62E172FD82E77
:10285000092FC0E0D0E014C0CE01880F991F01906D
:10286000F081E02DE80FF91F0190F081E02D8481C7
:1028700095814C2D512F6D2D702F0E94291221967C
:10288000D7015396ED91FC91549782819381C8179B
:10289000D90714F3DF91CF911F910F91FF90EF9023
:1028A000DF90CF9008956130710519F162307105A4
:1028B0001CF4672B49F008956230710541F16330D3
:1028C000710509F046C034C0880F991FE091970444
:1028D000F0919804E80FF91F80819181411551050D
:1028E00021F041305105A9F502C04B961DC08F96CD
:1028F0001BC0880F991FE0919704F0919804E80F8E
:10290000F91F80819181452B21F548960DC0880FD4
:10291000991FE0919704F0919804E80FF91F8081C6
:102920009181452BB1F48196B9010E9479250895D2
:10293000880F991FE0919704F0919804E80FF91F10
:10294000808191814130510521F44796B9010E945F
:1029500079250895CF92DF92EF92FF920F931F9304
:10296000CF93DF938C01EB016C01CC0CDD1C488113
:10297000442319F489818D33E9F54093A1049E0124
:102980002E5F3F4FF90182E090E001C0C701DF01F7
:102990005081552341F031967C010894E11CF11CD3
:1029A0005C32A1F712C0E0919704F0919804EC0D0D
:1029B000FD1D0190F081E02D608171812296C8019A
:1029C00050E09E010E94531415C01C92E0919704A0
:1029D000F0919804EC0DFD1D0190F081E02D6081D7
:1029E00071814091A104C80150E00E945314CE0DA2
:1029F000DF1DBDCFDF91CF911F910F91FF90EF9021
:102A0000DF90CF900895EF92FF920F931F93CF9393
:102A1000DF938B017A018230910509F494C08330F1
:102A200091052CF4009769F0019741F44AC0833076
:102A3000910509F4BCC0049709F4E5C00FEF1FEF3E
:102A400021C183E490E00E942D23EC01009729F03E
:102A500083E4DE011D928A95E9F7CE010296B80162
:102A60000E94792586E090E00E942D23FC01988F3A
:102A70008F8B009729F086E0DF011D928A95E9F798
:102A800086E090E00E942D23FC019A8F898F0097A9
:102A900029F086E0DF011D928A95E9F70E94352131
:102AA000698B7A8B8B8B9C8BD0939C04C0939B04FB
:102AB000198218820E94BC0D8C01B7010E94AA14D1
:102AC000E1C08CE290E00E942D23EC01009729F0F8
:102AD0008CE2FE0111928A95E9F7CE010296B801C7
:102AE0000E94792588E090E00E942D23FC019B8BB9
:102AF0008A8B009729F088E0DF011D928A95E9F71B
:102B000088E090E00E942D23FC019D8B8C8B009728
:102B100029F088E0DF011D928A95E9F788E090E0CE
:102B20000E942D23FC019F8B8E8B009729F088E05B
:102B3000DF011D928A95E9F7D0939C04C0939B0412
:102B400081E090E092C085E390E00E942D23EC01AB
:102B5000009729F085E3FE0111928A95E9F7CE01ED
:102B60000296B8010E94792588E090E00E942D230A
:102B7000FC019E8F8D8F009729F088E0DF011D9268
:102B80008A95E9F786E090E00E942D23FC0198A346
:102B90008F8F009729F086E0DF011D928A95E9F773
:102BA000D0939C04C0939B0482E090E05EC08BE2D3
:102BB00090E00E942D23EC01009729F08BE2FE01AA
:102BC00011928A95E9F7CE010296B8010E94792503
:102BD00086E090E00E942D23FC019E8B8D8B009758
:102BE00029F086E0DF011D928A95E9F70E943521E0
:102BF000698B7A8B8B8B9C8BD0939C04C0939B04AA
:102C000083E090E032C085E190E00E942D23EC014A
:102C1000009729F085E1FE0111928A95E9F7CE012E
:102C20000296B8010E94792588E090E00E942D2349
:102C3000FC019A8B898B009729F088E0DF011D92B7
:102C40008A95E9F784E090E00E942D23FC019C8B9B
:102C50008B8B009721F01082118212821382D09305
:102C60009C04C0939B0484E090E0998388830E9435
:102C7000BC0D182F092FB7010E94AA14212F302F45
:102C8000C9018C01C801DF91CF911F910F91FF9075
:102C9000EF9008950F931F9380911C048230B9F137
:102CA000833038F4882309F4ABC0813009F0C6C002
:102CB00006C08330D9F1843009F0C0C06CC08DE10A
:102CC00094E063EE71E00E945525BC018093DD0421
:102CD0007093DE04FC0101900020E9F73197E81BB6
:102CE000F90BE45EFB4F83818093E904DB010D90D7
:102CF0000020E9F7A61BB70BA05EBB4FB093E20420
:102D0000A093E10490E0AD010E94031597C08DE10E
:102D100094E063EE71E00E9455259093DE04809369
:102D2000DD040E94D50B0E945B0D88C08DE194E00C
:102D300063EE71E00E9455259093DE048093DD04DC
:102D400080E090E063EE71E00E9455259093E404EA
:102D50008093E304FC0101900020E9F73197E81B20
:102D6000F90BE80FF91F81818093EA048091DD045B
:102D70009091DE040E94D50B8C018091E304909128
:102D8000E4040E94D50BBC014091EA04C80150E064
:102D90000E94190E53C08DE194E063EE71E00E9431
:102DA00055259093DE048093DD0480E090E063EE8F
:102DB00071E00E9455259093E4048093E304FC01A4
:102DC00001900020E9F73197E81BF90BE80FF91F94
:102DD00081818093EA048091DD049091DE040E9459
:102DE000D50B8C018091E3049091E4040E94D50BF3
:102DF000BC014091EA04C80150E00E94890C1EC049
:102E00008DE194E063EE71E00E9455258093DD042E
:102E10009093DE04FC0101900020E9F7E81BF90B18
:102E2000E25EFB4FF093E204E093E1040E94D50BD5
:102E30006091E1047091E2040E94AA1481E01F9164
:102E40000F9108950F931F9300911A0410911B0482
:102E500080918004909181041DC04F3241F4108212
:102E60000E944A1610921B0410921A0406C02F5F8B
:102E70003F4F30931B0420931A048091800490915B
:102E800081040196909381048093800400911A0438
:102E900010911B040E94CC11045E1B4FF80180832B
:102EA00020911A0430911B04F901E45EFB4F40812C
:102EB0004D3741F0809180049091810480589E4369
:102EC00064F207C010820E944A1610921B041092EE
:102ED0001A041F910F9108950F931F93CF93DF93BF
:102EE0008C01C0E0D0E0FE01EE0FFF1FEE56FF4F59
:102EF00065917491C8010E944525892B31F0219676
:102F0000C530D10581F7CFEFDFEFCE01DF91CF9153
:102F10001F910F910895DF92EF92FF920F931F93ED
:102F2000DF93CF9300D0CDB7DEB77C01D62E5A8386
:102F3000498381E00E94FC0E8AE30E94FC0E00E0BF
:102F400010E008C0F701E00FF11F80810E94FC0E25
:102F50000F5F1F4FF70101900020E9F73197EE193D
:102F6000FF090E171F0770F38AE30E94FC0E8D2DD8
:102F70000E94FC0E8AE30E94FC0E81E08093D70140
:102F80007E010894E11CF11C45C08091D701882383
:102F900019F48CE20E94FC0E1092D7018091E70494
:102FA0009091E80465EE71E00E94552590939E048F
:102FB00080939D0480E090E065EE71E00E945525CD
:102FC0009093A00480939F0480919D0490919E040F
:102FD0000E946C170E94FC0E8DE30E94FC0E00E024
:102FE00010E00AC0800F911FFC018081882311F03E
:102FF0000E94FC0E0F5F1F4F80919F049091A004D0
:10300000FC0101900020E9F73197E81BF90B0E173E
:103010001F0740F389819A816CE871E0A7010E9443
:1030200080259093E8048093E704892B09F0ADCFC5
:103030000F900F90CF91DF911F910F91FF90EF9024
:10304000DF9008952F923F924F925F926F927F92FE
:103050008F929F92AF92BF92CF92DF92EF92FF92A8
:103060000F931F93DF93CF9300D000D0CDB7DEB77F
:103070008AE995E040E855E260E070E00E94541E65
:103080000E94720B80E090E00E94CC11863039F4EF
:1030900081E090E00E94CC11833009F46EC180E0A1
:1030A00090E066E00E949F1181E090E063E00E9462
:1030B0009F1182E090E090938104809380048BE7DD
:1030C0000E94FC0E06E910E0F801859094908BEECA
:1030D00094E0B4010E944E258BEE94E064E070E031
:1030E0004EE851E00E948B178FE20E94FC0E0E5FAB
:1030F0001F4FF801459054908BEE94E0B2010E946E
:103100004E258BEE94E064E070E04EE851E00E94C2
:103110008B178FE20E94FC0E0E5F1F4FF801A590E7
:10312000B4908BEE94E0B5010E944E258BEE94E0B6
:1031300064E070E04EE851E00E948B178FE20E943D
:10314000FC0E0E5F1F4FF801859194919C838B8339
:103150008BEE94E06B817C810E944E258BEE94E097
:1031600060E070E04FE851E00E948B178FE20E9410
:10317000FC0E0E5F1F4FF801C590D4908BEE94E0CB
:10318000B6010E944E258BEE94E061E070E041EACA
:1031900051E00E948B178FE20E94FC0E0E5F1F4FC2
:1031A000F801659074908BEE94E0B3010E944E2577
:1031B0008BEE94E062E070E047EA51E00E948B17EA
:1031C0008FE20E94FC0E0E5F1F4FF8012590349095
:1031D0008BEE94E0B1010E944E258BEE94E061E00D
:1031E00070E04DEA51E00E948B178FE20E94FC0EC6
:1031F0000E5F1F4FF801E590F4908BEE94E0B7015D
:103200000E944E258BEE94E063E070E044EB51E0C9
:103210000E948B178FE20E94FC0E0E5F1F4FF80179
:10322000059114918BEE94E0B8010E944E258BEE2F
:1032300094E063E070E040EC51E00E948B178FE275
:103240000E94FC0E8BEE94E0B7010E944E258AEF9F
:1032500094E0B4010E944E2581E06BEE74E04AEFE9
:1032600054E027E030E00E941E108FE20E94FC0E26
:103270008BEE94E0B3010E944E258AEF94E0B401F6
:103280000E944E2581E06BEE74E04AEF54E025E0A9
:1032900030E00E941E108FE20E94FC0E8BEE94E044
:1032A000B6010E944E258AEF94E0B2010E944E259D
:1032B00081E06BEE74E04AEF54E024E030E00E94DD
:1032C0001E108FE20E94FC0E8BEE94E06B817C81DD
:1032D0000E944E258AEF94E0B5010E944E2581E0C0
:1032E0006BEE74E04AEF54E020E030E00E941E10E4
:1032F0008FE20E94FC0E8BEE94E0B6010E944E25F8
:103300008AEF94E0B5010E944E2581E06BEE74E0F7
:103310004AEF54E022E030E00E941E108FE20E944B
:10332000FC0E8BEE94E0B1010E944E258AEF94E0F2
:10333000B5010E944E2581E06BEE74E04AEF54E047
:1033400022E030E00E941E108FE20E94FC0E8BEE05
:1033500094E0B8010E944E258AEF94E0B2010E94E9
:103360004E2581E06BEE74E04AEF54E027E030E058
:103370000E941E108DE70E94FC0E82E090E0909368
:1033800081048093800400911A0410911B040E9410
:10339000CC11045E1B4FF8018083E0911A04F09178
:1033A0001B04E45EFB4F80818B3779F580918004AC
:1033B00090918104019690938104809380040E94EF
:1033C00035216093090570930A0580930B0590934E
:1033D0000C050E94221781EB90E00E94590B0E947D
:1033E0003521AB01BC018091090590910A05A0919E
:1033F0000B05B0910C05481B590B6A0B7B0B8AE936
:1034000095E02AE030E00E94A0208DEA90E00E9442
:10341000590B2091B6053091B705CE0101962115C3
:10342000310519F48A5B954002C0821B930B9A8385
:10343000898369817A818AE995E04AE050E00E94B7
:10344000B62088EA90E00E94590B60918004709148
:1034500081048AE995E04AE050E00E94B6200F908E
:103460000F900F900F90CF91DF911F910F91FF90D0
:10347000EF90DF90CF90BF90AF909F908F907F9014
:103480006F905F904F903F902F900895EF92FF9232
:103490000F931F93DF93CF9300D0CDB7DEB77C019E
:1034A0007A83698380E00E94FC0E8AE30E94FC0E0E
:1034B00000E010E00AC0F701E00FF11F80818823CF
:1034C00011F00E94FC0E0F5F1F4FF70101900020CA
:1034D000E9F73197EE19FF090E171F0760F38AE32A
:1034E0000E94FC0E81E08093D7017E010894E11CCC
:1034F000F11C45C08091D701882319F48CE20E9409
:10350000FC0E1092D7018091E7049091E80465EEDB
:1035100071E00E94552590939E0480939D0480E065
:1035200090E065EE71E00E9455259093A004809391
:103530009F0480919D0490919E040E946C170E94AC
:10354000FC0E8DE30E94FC0E00E010E00AC0800F2C
:10355000911FFC018081882311F00E94FC0E0F5FF7
:103560001F4F80919F049091A004FC0101900020C6
:10357000E9F73197E81BF90B0E171F0740F3898114
:103580009A816CE871E0A7010E9480259093E8047D
:103590008093E704892B09F0ADCF0F900F90CF9166
:1035A000DF911F910F91FF90EF9008950F931F935C
:1035B000CF93DF938C01C0E0D0E0FE01EE0FFF1F40
:1035C000E858FF4F65917491C8010E944525892BE9
:1035D00031F02196C530D10581F7CFEFDFEFCE0175
:1035E000DF91CF911F910F9108950F931F93CF9368
:1035F000DF938C01C0E0D0E0FE01EE0FFF1FEE571D
:10360000FF4F65917491C8010E944525892B31F0C7
:103610002196C830D10581F7CFEFDFEFCE01DF91E2
:10362000CF911F910F910895EF92FF920F931F93E7
:1036300080911C04803781F480911D04893609F043
:1036400013C180911E048E3609F00EC180911F04B3
:10365000873609F009C106C1853759F580911D04E7
:10366000843609F001C180911E04893609F0FCC03E
:1036700080911F048A3309F0F7C080E294E063EE82
:1036800071E00E9455259093DE048093DD0480E074
:1036900090E063EE71E00E945525BC019093E20436
:1036A0008093E1048091DD049091DE040E94461A2B
:1036B000D9C0813609F040C080911D04893609F0D7
:1036C0005BC080911E048E3609F056C080911F04A5
:1036D0008A3309F051C080E294E063EE71E00E9409
:1036E00055259093DE048093DD0480E090E063EE46
:1036F00071E00E9455259093E0048093DF0480E000
:1037000090E063EE71E00E9455259093E20480936F
:10371000E1040091DD041091DE048091DF049091BA
:10372000E0040E94D61ABC014091E1045091E204E9
:10373000C8010E948B1796C08237E1F480911D0466
:10374000893609F055C080911E048E3609F050C0AC
:1037500080911F048A3309F04BC080E294E063EE4D
:1037600071E00E9455259093DE048093DD040E9451
:10377000791178C08136D1F580911D04823609F027
:1037800073C080911E04893609F06EC080911F04B9
:103790008A3309F069C080E294E063EE71E00E9430
:1037A00055259093DE048093DD0480E090E063EE85
:1037B00071E00E9455259093E4048093E30480E037
:1037C00090E063EE71E00E9455259093E6048093AB
:1037D000E5040091DD041091DE04E090E304F09034
:1037E000E4040E94F51A9C0181E038C08237E1F5BB
:1037F00080911D048236C1F580911E048936A1F5A1
:1038000080911F048A3381F580E294E063EE71E0D9
:103810000E9455259093DE048093DD0480E090E0C3
:1038200063EE71E00E9455259093E4048093E304D5
:1038300080E090E063EE71E00E9455259093E604ED
:103840008093E5040091DD041091DE04E090E30430
:10385000F090E4040E94F51A9C0180E0B801A701F1
:103860000E941E1081E001C080E01F910F91FF9027
:10387000EF900895CF92DF92EF92FF920F931F93F4
:10388000DF93CF9300D0CDB7DEB78AE995E00E94F1
:10389000C21E849709F03AC10E9435216093D90471
:1038A0007093DA048093DB049093DC048AE995E05A
:1038B0000E94DC1E8AE995E00E94B11E892B09F066
:1038C00015C16AE070E080E090E00E946921F2CFCB
:1038D0008AE995E00E94B11E892B09F00EC16AE0C9
:1038E00070E080E090E00E946921F2CF21E0209317
:1038F000D50480918004909181049093D7048093A3
:10390000D604019690938104809380042093D80478
:103910006E010894C11CD11C76012AEB35E0E21A35
:10392000F30AD1C08AE995E00E94B11E1816190663
:103930000CF0B4C000911A0410911B040436110558
:103940000CF0ACC08AE995E00E94DC1E045E1B4FBF
:10395000F801808380911A0490911B04FC01E45EBD
:10396000FB4F20812F3279F410828091D804882374
:1039700019F48FE20E94FC0E0E94141B10921B048B
:1039800010921A0483C02D3709F083C01092D50419
:1039900010828091D804882319F48FE20E94FC0ED3
:1039A0000E94141B10921B0410921A048091800430
:1039B000909181046DE70E949F118091D6049091AF
:1039C000D704019690938104809380040E9422176B
:1039D0008091D6049091D7046FE20E949F1180914C
:1039E0008004909181048D519E4314F00E94FC103C
:1039F00085EF90E00E94590B0E943521AB01BC017C
:103A00008091D9049091DA04A091DB04B091DC0498
:103A1000481B590B6A0B7B0B8AE995E02AE030E0E2
:103A20000E94A02081EF90E00E94590B8091B60582
:103A30009091B705009719F4FA82E98205C09601C2
:103A4000281B390B3A83298369817A818AE995E0B9
:103A50004AE050E00E94B6208CEE90E00E94590BA4
:103A600060918004709181048AE995E04AE050E019
:103A70000E94B62088EE90E00E94590B8AE995E0FA
:103A80006091D40440E050E00E94D1201092D8040C
:103A900005C0019690931B0480931A0480911A0428
:103AA00090911B048436910574F084EE90E00E949E
:103AB0006B0B10921B0410921A048AE995E00E9485
:103AC000001F1092D5048091D504882309F02ACFD5
:103AD0001DC080EE90E00E946B0B10921B041092B0
:103AE0001A048AE995E00E94001F10C08AE995E057
:103AF0000E94DC1E8093D404EBCE8AE995E00E94FC
:103B0000DC1E8B37910509F4F1CEE3CF0F900F90B7
:103B1000CF91DF911F910F91FF90EF90DF90CF90A9
:103B20000895CF93DF930E943A1CC0E0D0E009C013
:103B3000CE010E94280B882319F0CE010E94981212
:103B400021968091990490919A04C817D90784F31B
:103B500081E080931105C0E0D0E00CC0CE010E944E
:103B6000BB0A181619062CF410921105CE010E94FA
:103B7000981221968091990490919A04C817D907B8
:103B80006CF380911105882309F453C08FEF9FEFE8
:103B9000AFEFBFEF80930D0590930E05A0930F0537
:103BA000B0931005C0E0D0E029C0CE010E94FB0A0E
:103BB0006F3F2FEF72072FEF82072FEF9207E9F089
:103BC00020910D0530910E0540910F055091100583
:103BD0002F3FEFEF3E07EFEF4E07EFEF5E0729F0C5
:103BE000621773078407950744F460930D0570937B
:103BF0000E0580930F0590931005219680919904EE
:103C000090919A04C817D90784F280910D0590917C
:103C10000E05A0910F05B091100580559040A04071
:103C2000B0408093120590931305A0931405B093B0
:103C30001505DF91CF9108950E948F210E942218CF
:103C40000E94911DFDCF1F920F920FB60F9211246B
:103C50002F933F934F938F939F93EF93FF934091B5
:103C6000C600E0919605F091970531969F012F7758
:103C700030703197809198059091990528173907F0
:103C800039F0EA5EFA4F408330939705209396050A
:103C9000FF91EF919F918F914F913F912F910F90B5
:103CA0000FBE0F901F901895CF93DF93EC019A01F0
:103CB000AB01E885F985203081EE380780E04807C0
:103CC00080E0580709F449C081E090E00A8802C00A
:103CD000880F991F0A94E2F7808360E079E08DE312
:103CE00090E00E94F8222150304040405040CA01EC
:103CF000B90122E030E040E050E00E94F822EC817F
:103D0000FD813083EE81FF812083EA85FB85208160
:103D100041E050E0CA010E8402C0880F991F0A9446
:103D2000E2F7282B2083EA85FB852081CA010F84D6
:103D300002C0880F991F0A94E2F7282B2083EA8596
:103D4000FB858081088802C0440F551F0A94E2F762
:103D5000842B8083DF91CF910895108220E130E0A1
:103D6000CECFDC011296ED91FC911397E058FF4FF6
:103D70002191319180819181281B390B2F773070EF
:103D8000C9010895DC011296ED91FC911397EE574D
:103D9000FF4F2081318192918291E058F04082174B
:103DA000930719F42FEF3FEF05C0E20FF31F808157
:103DB000282F30E0C9010895DC011296ED91FC91A5
:103DC0001397DF01AE57BF4F2D913C911197E058EB
:103DD000FF4F80819181E058F0408217930719F4DA
:103DE0002FEF3FEF0BC0E20FF31F80812F5F3F4F9C
:103DF0002F7730702D933C93282F30E0C901089520
:103E0000DC011296ED91FC911397EE57FF4F8081E4
:103E10009181929382930895FC01A085B1852189B7
:103E20008C9190E0022E02C0959587950A94E2F756
:103E300080FFF6CF0484F585E02D608308958BEE36
:103E400091E090939B0580939A0586E195E090938D
:103E50009D0580939C0585EC90E090939F05809351
:103E60009E0584EC90E09093A1058093A00580ECE2
:103E700090E09093A3058093A20581EC90E090934D
:103E8000A5058093A40586EC90E09093A705809308
:103E9000A60584E08093A80583E08093A90587E0C8
:103EA0008093AA0585E08093AB0581E08093AC0503
:103EB00008950F931F93CF93DF938C01EB0109C0FB
:103EC0002196D801ED91FC910190F081E02DC8017F
:103ED000099568816623A1F7DF91CF911F910F911A
:103EE0000895EF92FF920F931F93CF93DF938C016E
:103EF0007B01EA010CC0D7016D917D01D801ED91E4
:103F0000FC910190F081E02DC8010995219720973F
:103F100091F7DF91CF911F910F91FF90EF9008954E
:103F2000DC01ED91FC910280F381E02D099508956B
:103F30002F923F924F925F926F927F928F929F92B9
:103F4000AF92BF92CF92DF92EF92FF920F931F93A7
:103F5000DF93CF93CDB7DEB7A0970FB6F894DEBF4F
:103F60000FBECDBF1C016A017B01411551056105E2
:103F7000710549F440E350E060E070E020E030E09B
:103F80000E94532056C0882499245401422E55245F
:103F90006624772401E010E00C0F1D1F080D191D89
:103FA000C701B601A30192010E94D622F8016083E5
:103FB0000894811C911CA11CB11CC701B601A3016E
:103FC00092010E94D622C901DA016C017D01C1145F
:103FD000D104E104F104F1F681E0E82EF12CEC0EBD
:103FE000FD1EE80CF91C3E010894611C711CD501F2
:103FF000C4010197A109B1096C01C818D90816C0FC
:10400000F601EE0DFF1D40814A3010F4405D01C005
:10401000495C552747FD5095652F752FC10120E05C
:1040200030E00E9453200894E108F1086E147F04E8
:1040300039F7A0960FB6F894DEBF0FBECDBFCF9173
:10404000DF911F910F91FF90EF90DF90CF90BF9085
:10405000AF909F908F907F906F905F904F903F9028
:104060002F900895DC012115310541F4ED91FC916B
:104070000190F081E02D642F099508950E94981F0A
:104080000895EF92FF920F931F939A01E62EFF245B
:1040900000E010E0B801A7010E9432201F910F91AB
:1040A000FF90EF900895EF92FF920F931F93CF939D
:1040B000DF93EC017A018B012115310541F4E88190
:1040C000F9810190F081E02D642F09951BC02A3001
:1040D0003105B1F477FF10C04DE250E060E070E0D0
:1040E00020E030E00E94532010950095F094E09479
:1040F000E11CF11C011D111DCE01B801A7012AE030
:104100000E94981FDF91CF911F910F91FF90EF9028
:1041100008950F931F938C014DE050E060E070E034
:1041200020E030E00E945320C8014AE050E060E007
:1041300070E020E030E00E9453201F910F9108951D
:104140000F931F938C010E943220C8010E94892086
:104150001F910F9108950F931F938C010E94901F40
:10416000C8010E9489201F910F910895CF92DF927C
:10417000EF92FF920F931F938C016B019A01EE2433
:10418000D7FCE094FE2CB701A6010E945320C80181
:104190000E9489201F910F91FF90EF90DF90CF90A8
:1041A0000895CF92DF92EF92FF920F931F938C01AD
:1041B000C62E9A01DD24C7FCD094ED2CFD2CB7014E
:1041C000A6010E945320C8010E9489201F910F91CF
:1041D000FF90EF90DF90CF9008951F920F920FB64F
:1041E0000F9211242F933F938F939F93AF93BF937D
:1041F0008091B1059091B205A091B305B091B4053D
:104200003091B5050196A11DB11D232F2D5F2D37CE
:1042100020F02D570196A11DB11D2093B505809367
:10422000B1059093B205A093B305B093B405809106
:10423000AD059091AE05A091AF05B091B005019686
:10424000A11DB11D8093AD059093AE05A093AF0560
:10425000B093B005BF91AF919F918F913F912F91F6
:104260000F900FBE0F901F9018958FB7F894209164
:10427000B1053091B2054091B3055091B4058FBF9F
:10428000B901CA0108959FB7F8942091AD05309106
:10429000AE054091AF055091B00586B5A89B06C00C
:1042A0008F3F21F02F5F3F4F4F4F5F4F9FBF542FE6
:1042B000432F322F2227280F311D411D511D82E02F
:1042C000220F331F441F551F8A95D1F7B901CA0128
:1042D0000895EF92FF920F931F93CF93DF937B018B
:1042E0008C010E944321EB010EC00E9443216C1BF4
:1042F0007D0B685E7340C8F30894E108F10801097A
:104300001109C851DC4FE114F1040105110569F7E9
:10431000DF91CF911F910F91FF90EF9008957894C6
:1043200084B5826084BD84B5816084BD85B58260BA
:1043300085BD85B5816085BDEEE6F0E08081816058
:104340008083E1E8F0E01082808182608083808158
:1043500081608083E0E8F0E0808181608083E1EB30
:10436000F0E0808184608083E0EBF0E08081816018
:104370008083EAE7F0E080818460808380818260CE
:1043800080838081816080838081806880831092B7
:10439000C1000895982F8E3008F09E50977080913C
:1043A000D8018295880F880F807C892B80937C00B0
:1043B00080917A00806480937A0080917A0086FDF3
:1043C000FCCF2091780040917900942F80E030E07C
:1043D000282B392BC9010895482F50E0CA01835575
:1043E0009E4FFC01249147565E4FFA018491882329
:1043F000C1F0E82FF0E0EE0FFF1FE558FE4FA5914A
:10440000B491662341F49FB7F8948C912095822350
:104410008C939FBF08959FB7F8948C91822B8C93B7
:104420009FBF0895833071F0843028F48130A1F06B
:10443000823021F514C08630B1F08730D1F084305D
:10444000E9F404C0809180008F7703C080918000E0
:104450008F7D80938000089584B58F7702C084B5E6
:104460008F7D84BD08958091B0008F778093B000D8
:1044700008958091B0008F7D8093B0000895FF92E1
:104480000F931F93F62E482F50E0CA018F539E4F73
:10449000FC012491CA0183559E4FFC01149147569B
:1044A0005E4FFA0104910023D9F0222319F0822FE4
:1044B0000E941222E02FF0E0EE0FFF1FEB57FE4F9D
:1044C000A591B491FF2031F49FB7F8948C91109589
:1044D000812304C09FB7F8948C91812B8C939FBF4C
:1044E0001F910F91FF9008950F931F93482F50E055
:1044F000CA018F539E4FFC012491CA0183559E4FE0
:10450000FC01049147565E4FFA011491112319F4EE
:1045100020E030E015C0222319F0822F0E941222E1
:10452000812F90E0880F991F81579E4FFC01A59124
:10453000B4918C9120E030E0802311F021E030E054
:10454000C9011F910F910895629FD001739FF001DF
:10455000829FE00DF11D649FE00DF11D929FF00D13
:10456000839FF00D749FF00D659FF00D9927729F4A
:10457000B00DE11DF91F639FB00DE11DF91FBD01D5
:10458000CF011124089597FB092E07260AD077FD45
:1045900004D049D006D000201AF4709561957F4F61
:1045A0000895F6F7909581959F4F0895A1E21A2EF0
:1045B000AA1BBB1BFD010DC0AA1FBB1FEE1FFF1FC7
:1045C000A217B307E407F50720F0A21BB30BE40B17
:1045D000F50B661F771F881F991F1A9469F760955E
:1045E0007095809590959B01AC01BD01CF01089518
:1045F00097FB092E05260ED057FD04D0D7DF0AD031
:10460000001C38F450954095309521953F4F4F4F01
:104610005F4F0895F6F790958095709561957F4F5F
:104620008F4F9F4F0895AA1BBB1B51E107C0AA1FC4
:10463000BB1FA617B70710F0A61BB70B881F991F43
:104640005A95A9F780959095BC01CD010895EE0F7C
:10465000FF1F0590F491E02D0994CF93DF93BC01E7
:104660008230910510F462E070E0A091B805B0913D
:10467000B905ED01E0E0F0E040E050E021C08881C4
:1046800099818617970769F48A819B81309719F081
:104690009383828304C09093B9058093B805FE018B
:1046A00034C06817790738F44115510519F084179B
:1046B000950708F4AC01FE018A819B819C01E90108
:1046C0002097E9F641155105A9F1CA01861B970B00
:1046D000049708F4BA01E0E0F0E02AC08D919C91C3
:1046E000119784179507F9F46417750781F41296EA
:1046F0008D919C911397309719F09383828304C016
:104700009093B9058093B805FD0132964FC0CA0158
:10471000861B970BFD01E80FF91F619371930297B8
:104720008D939C9343C0FD01828193819C01D901AB
:104730001097A1F68091B6059091B705892B41F4A9
:104740008091CD019091CE019093B7058093B605ED
:104750004091CF015091D0014115510541F44DB721
:104760005EB78091CB019091CC01481B590B2091F1
:10477000B6053091B70524173507B0F4CA01821B7E
:10478000930B8617970780F0AB014E5F5F4F84173E
:10479000950750F0420F531F5093B7054093B6054D
:1047A000F9016193719302C0E0E0F0E0CF01DF9185
:1047B000CF910895CF93DF93009709F450C0EC0197
:1047C00022971B821A82A091B805B091B905109763
:1047D00009F140E050E0AC17BD0708F1BB83AA83A4
:1047E000FE0121913191E20FF31FAE17BF0779F45B
:1047F0008D919C911197280F391F2E5F3F4F398360
:10480000288312968D919C9113979B838A834115DF
:10481000510571F4D093B905C093B80520C0129624
:104820008D919C911397AD01009711F0DC01D3CFCE
:10483000FA01D383C28321913191E20FF31FCE1786
:10484000DF0769F488819981280F391F2E5F3F4F58
:10485000FA01318320838A819B8193838283DF9154
:10486000CF910895A0E0B0E0E8E3F4E20C946B2867
:104870008C01009729F4CB010E942D238C01BAC032
:104880009EEFE92E9FEFF92EE00EF11E5801A60EC5
:10489000B71EAE14BF0408F4ABC08EEF882E8FEFA6
:1048A000982E8A0C9B1CE7014881598146175707AF
:1048B000B8F04530510508F49DC0CA010497861729
:1048C000970708F497C042505040461B570BF4011D
:1048D0005183408379836883C5010E94DA238AC0AB
:1048E0006B01C41AD50AE091B805F091B905A0E0B2
:1048F000B0E0C0E0D0E042C0E815F905A1F52081A4
:1049000031812C153D0578F1C90102968C159D0564
:10491000A8F04E5F5F4F420F531FE7015983488352
:1049200022813381109729F013963C932E9312978E
:1049300061C03093B9052093B8055CC02250304067
:104940002C193D0931832083109729F01396FC938D
:10495000EE93129704C0F093B905E093B805F70100
:104960007183608347C080819181C817D90708F49B
:10497000EC01DF01828193819C01F901309709F0FC
:10498000BBCF400F511F8091B6059091B70584179A
:104990009507E9F4C617D707D0F42091CF013091DD
:1049A000D0012115310541F42DB73EB78091CB01DF
:1049B0009091CC01281B390BA216B306C8F4B09213
:1049C000B705A092B605E7017983688313C0CB01D0
:1049D0000E942D23EC01009759F0F701408151818D
:1049E000B8010E946725C8010E94DA238E0102C027
:1049F00000E010E0C801CDB7DEB7ECE00C948728EA
:104A0000FC0188279927E89421912032E9F3293085
:104A100010F02E30C8F32B3241F02D3239F4689467
:104A200004C00E94BC25820F911D219120532A3081
:104A3000C0F31EF4909581959F4F08951F93FC013C
:104A400099278827BC01E89411911032E9F31930B5
:104A500010F01E30C8F31B3251F01D3249F4689437
:104A600006C00E94A725610F711D811D911D119126
:104A700010531A30B0F33EF490958095709561957F
:104A80007F4F8F4F9F4F1F910895FB01DC018D9148
:104A9000059080190110D9F3990B0895FB01DC01F1
:104AA00005900D920020E1F708954AEF51E00E9431
:104AB00080250895FB01DC0104C08D9101908019CF
:104AC00021F441505040C8F7881B990B0895FB0111
:104AD000DC0102C001900D9241505040D8F708957A
:104AE000FB01DC018D91019080190110D9F3990B24
:104AF0000895FB01DC0101900D920020E1F708957B
:104B0000FA01A191B081009719F41097E1F0CD015D
:104B1000DC01CD010D90002011F4C00113C0FB0198
:104B20002191222319F02015D9F7F3CFFB01219110
:104B3000201519F41E92119606C02223C1F70D907C
:104B40000020A1F7D001FA01A193B0830895592F55
:104B5000482F372F262F660F771F881F991F660F44
:104B6000771F881F991F620F731F841F951F660F81
:104B7000771F881F991F08957AE0979F902D879F30
:104B8000802D910D11240895AEE0B0E0EAECF5E23D
:104B90000C9473280D891E8986E08C831A830983FF
:104BA0008FEF9FE79E838D839E01275E3F4FCE014F
:104BB00001966F89788DA9010E94E8252F8138859B
:104BC000020F131FF80110822E96E4E00C948F2838
:104BD000ABE0B0E0EEEEF5E20C9465283C012B0171
:104BE0005A01FC0117821682838181FD03C06FEF99
:104BF0007FEFC6C19AE0892E1E010894211C311C4A
:104C0000F3012381F20123FD859123FF81912F017F
:104C1000882309F4B2C1853239F423FD859123FF3D
:104C200081912F01853229F490E0B3010E94DB27A6
:104C3000E7CF982FFF24EE249924FFE1FF15D0F051
:104C40009B3269F09C3228F4903259F0933291F4FF
:104C50000EC09D3249F0903369F441E024C052E027
:104C6000F52A84E0F82A28C098E0F92A25C0E0E176
:104C7000FE2A22C0F7FC29C0892F80538A3070F4A5
:104C8000F6FE05C0989C902C1124980E15C0E89C47
:104C9000E02C1124E80EF0E2FF2A0EC09E3229F427
:104CA000F6FC6BC140E4F42A07C09C3619F450E8C6
:104CB000F52A02C0983649F4F20123FD959123FFAD
:104CC00091912F01992309F0B8CF892F8554833012
:104CD00018F08052833038F444E050E0A40EB51E42
:104CE0005FE359830FC0933631F0933779F09335F2
:104CF00009F056C020C0F5018081898342E050E070
:104D0000A40EB51E610101E010E012C0F501C080E3
:104D1000D180F6FC03C06FEF7FEF02C0692D70E019
:104D200042E050E0A40EB51EC6010E94D0278C01BF
:104D30005FE7F52214C0F501C080D180F6FC03C006
:104D40006FEF7FEF02C0692D70E042E050E0A40EEB
:104D5000B51EC6010E94C5278C0150E8F52AF3FE56
:104D600007C01AC080E290E0B3010E94DB27EA94FA
:104D70008E2D90E008171907A8F30EC0F601F7FC76
:104D80008591F7FE81916F0190E0B3010E94DB27CE
:104D9000E110EA94015010400115110579F7EAC0BD
:104DA000943611F0993669F5F7FE08C0F5012081B7
:104DB00031814281538184E090E00AC0F501808115
:104DC00091819C01442737FD4095542F82E090E06B
:104DD000A80EB91E9FE6F92257FF09C050954095CD
:104DE000309521953F4F4F4F5F4FE0E8FE2ACA01B3
:104DF000B901A1012AE030E00E940728D82ED2187C
:104E000040C0953729F41F2D1F7E2AE030E01DC0D9
:104E10001F2D197F9F3661F0903720F4983509F0E7
:104E2000ACC00FC0903739F0983709F0A6C004C065
:104E300028E030E00AC0106114FD146020E130E089
:104E400004C014FD166020E132E017FF08C0F50130
:104E5000608171818281938144E050E008C0F50156
:104E600080819181BC0180E090E042E050E0A40E9E
:104E7000B51EA1010E940728D82ED2188FE7F82E60
:104E8000F122F6FE0BC05EEFF522D91438F4F4FEE1
:104E900007C0F2FC05C08FEEF82202C01D2D01C034
:104EA000192DF4FE0DC0FE01ED0DF11D8081803342
:104EB00019F499EEF92208C01F5FF2FE05C003C085
:104EC0008F2D867809F01F5F0F2DF3FC14C0F0FEC4
:104ED0000FC01E1510F09D2C0BC09D2C9E0C911A1E
:104EE0001E2D06C080E290E0B3010E94DB271F5F09
:104EF0001E15C0F304C01E1510F4E11A01C0EE2403
:104F000004FF0FC080E390E0B3010E94DB2702FFA3
:104F10001DC001FD03C088E790E00EC088E590E069
:104F20000BC0802F867891F001FF02C08BE201C098
:104F300080E2F7FC8DE290E0B3010E94DB2706C01F
:104F400080E390E0B3010E94DB279A94D914C0F368
:104F5000DA94F101ED0DF11D808190E0B3010E9422
:104F6000DB27DD20A9F706C080E290E0B3010E94B4
:104F7000DB27EA94EE20C1F743CEF3016681778107
:104F8000CB012B96E2E10C948128FC010590615045
:104F900070400110D8F7809590958E0F9F1F08954F
:104FA000FC016150704001900110D8F780959095F8
:104FB0008E0F9F1F08950F931F93CF93DF938C0144
:104FC000EB018B8181FF1BC082FF0DC02E813F81D1
:104FD0008C819D812817390764F4E881F981019358
:104FE000F983E88306C0E885F985802F0995892B28
:104FF00031F48E819F8101969F838E8302C00FEFD3
:105000001FEFC801DF91CF911F910F910895FA0111
:10501000AA27283051F1203181F1E8946F936E7FF7
:105020006E5F7F4F8F4F9F4FAF4FB1E03ED0B4E0E8
:105030003CD0670F781F891F9A1FA11D680F791F29
:105040008A1F911DA11D6A0F711D811D911DA11D3A
:1050500020D009F468943F912AE0269F112430194A
:10506000305D3193DEF6CF010895462F4770405DE5
:105070004193B3E00FD0C9F7F6CF462F4F70405D94
:105080004A3318F0495D31FD4052419302D0A9F7EF
:10509000EACFB4E0A6959795879577956795BA95E9
:1050A000C9F700976105710508959B01AC010A2EAF
:1050B00006945795479537952795BA95C9F7620F86
:1050C000731F841F951FA01D08952F923F924F922A
:1050D0005F926F927F928F929F92AF92BF92CF9288
:1050E000DF92EF92FF920F931F93CF93DF93CDB791
:1050F000DEB7CA1BDB0B0FB6F894DEBF0FBECDBF09
:1051000009942A88398848885F846E847D848C84D9
:105110009B84AA84B984C884DF80EE80FD800C81E2
:105120001B81AA81B981CE0FD11D0FB6F894DEBFC5
:0C5130000FBECDBFED010895F894FFCF35
:10513C00504B4556530051554555453A20696E73B1
:10514C00756666696369656E74206D656D6F7279DD
:10515C0020746F206372656174652061206E6577C1
:10516C00206E6F64652E0051554555453A2063619C
:10517C006E277420706F70206974656D2066726F75
:10518C006D2071756575653A207175657565206959
:10519C007320656D7074792E00636C69636B0065A8
:1051AC0076656E740072656C6561736500256400CC
:1051BC00616C7578007469636B0074002C0000706E
:1051CC00696E3D31322C706572696F643D313030DF
:1051DC000070696E3D390070696E3D300070696E0B
:1051EC003D313000706572696F643D313030300094
:1051FC00706572696F643D323030002000BA050072
:10520C0000FFFFFFFFC4FF01010000000016080BA8
:10521C0008711F3A003D00000000000C1F591F715F
:0A522C001FB11EDC1EC21E001F0091
:00000001FF
